:100000000C94B2150C9400000C9400000C940000A9
:100010000C9400000C9400000C9400000C94000060
:100020000C9400000C9400000C9400000C94000050
:100030000C9400000C9400000C9400000C94000040
:100040000C9400000C9400000C9400000C94000030
:100050000C9400000C9400000C9400000C94000020
:100060000C9400000C9400000C9400000C94000010
:100070000C9400000C9400000C9400000C94000000
:0C0080000C9400000C9400000C94000094
:102B6400BFEFBDBFB0E1BEBF0E94F216CDB7DEB766
:102B74006097CDBFDEBF21962F923F924F925F9216
:102B8400BFEFBE87BF87B0E0B4BB03B30C87B0E030
:102B9400BD87B0E8B5BF9BDDB1E02B2E7BDFBCE089
:102BA4002B2E78DF0C851D85103009F40030E9F4F4
:102BB400BCE04B2EB1E05B2EB1E03B2EB1E02B2EFE
:102BC400EFDEB6E14B2EB1E05B2EB1E03B2EB2E07E
:102BD4002B2EE6DE29E01EE105EE0A95F1F71A95A3
:102BE400E1F72A95D1F70000CBCF0C851D85103075
:102BF40009F4003008F464C0B0E0B09348012091B7
:102C040048010C851D850217B0E01B0708F458C065
:102C14001091480107E1011730F12090480108DFC5
:102C24000A871B879E011F930F93B1E0BF93B6EDF4
:102C3400BF933F932F937EDEADB7BEB71696ADBF5D
:102C4400BEBFB0E04B2EB1E05B2EB1E03B2EB1E055
:102C54002B2EA6DEB5E24B2EB1E05B2EB1E03B2E6F
:102C6400B2E02B2E9DDE00914801083190F00091D6
:102C74004801202F30E0220F331F00913D011091B5
:102C84003E01F901E00FF11F0E851F850193119399
:102C940011C000914801202F30E0220F331F009112
:102CA4003D0110913E01F901E00FF11F0A851B85DA
:102CB40001931193009148010F5F009348019FCF46
:102CC400B1E02B2EE7DEB0E0B0934801009148015B
:102CD4002C853D8510E00217130708F07BC0609136
:102CE4004801062F10E0000F111F40913D01509143
:102CF4003E01F801E40FF51F219131912A873B87AA
:102D0400062F10E00F5F1F4F000F111FF801E40F93
:102D1400F51F01911191A8013F3F09F42F3F51F490
:102D2400BFE34B2EB1E05B2EB6E03B2EB1E02B2E81
:102D340037DE1CC09E010A851B855F934F931F934A
:102D44000F93B1E0BF93BCEDBF933F932F93F2DD9C
:102D5400ADB7BEB71696ADBFBEBF4F915F918E01A2
:102D64002801B6E03B2EB1E02B2E1ADE5F3F09F4BA
:102D74004F3F51F4BFE34B2EB1E05B2EB6E03B2E48
:102D8400B2E02B2E0DDE16C08E015F934F93B1E09F
:102D9400BF93B9EDBF931F930F93CCDDADB7BEB70F
:102DA4001696ADBFBEBF8E012801B6E03B2EB2E041
:102DB4002B2EF6DD29E01EE105EE0A95F1F71A95B2
:102DC400E1F72A95D1F70000009148010F5F0093C5
:102DD40048017CCFD5CE5F904F903F902F90FFCF8E
:002DE400EF
:1026D200B0913200B77FB0933200B0913200BB7F2D
:1026E200B0933200B0913200BF77B0933200B09114
:1026F2003200BF7BB0933200B0913200BF7DB09305
:102702003200B0913200BF7EB0933200B0913100FE
:10271200B860B0933100B0913100B460B093310031
:10272200B0913100B061B0933100B0913100B0622C
:10273200B0933100B0913100B064B0933100B091E8
:102742003100B068B09331000E94AC050E94AC0524
:102752000E94AC05B0913200B062B0933200B091E9
:102762003200B061B0933200B0913200B860B093E1
:1027720032000E94A705B0913200B77FB0933200B9
:102782000E94AC05B0913200B860B09332000E9452
:10279200A705B0913200B77FB09332000E94AC051A
:1027A200B0913200B860B09332000E94A705B09198
:1027B2003200B77FB09332000E94AC05B091320074
:1027C200BF7EB0933200B0913200B860B093320055
:1027D2000E94A705B0913200B77FB09332000E94E9
:1027E200AC05B0913200B860B09332000E94A705E8
:1027F200B0913200B77FB0933200B0913200BF7D0A
:10280200B0933200B0913200B068B0933200B09110
:102812003200B860B09332000E94A705B091320036
:10282200B77FB09332000E94AC05B0913200BF77FF
:10283200B0933200B0913200B061B0933200B091E7
:102842003200B860B09332000E94A705B091320006
:10285200B77FB0933200B0913200BF7EB0933200A6
:10286200B0913200B860B09332000E94A705B091D7
:102872003200B77FB09332000E94AC05B0913200B3
:10288200B860B09332000E94A705B0913200B77FC2
:10289200B0933200B0913200B061B0933200B09187
:1028A2003200B860B09332000E94A705B0913200A6
:1028B200B77FB09332000E94AC05B0913200BF7E68
:1028C200B0933200B0913200B860B09332000E94EF
:1028D200A705B0913200B77FB0933200B0913200B9
:1028E200B068B0933200B0913200B064B09332005D
:1028F200B0913200B062B0933200B0913200B06158
:10290200B0933200B0913200B860B09332000E94AE
:10291200A705B0913200B77FB09332000E94AC0598
:0C292200B0914901B160B09349010895E3
:0E0B580018E40DE60A95F1F71A95E1F70895F5
:0A0B4E0003E00A95F1F70000089596
:102A980027FAB0913200B7F9B093320026FAB09114
:102AA8003200B6F9B093320025FAB0913200B5F988
:102AB800B093320024FAB0913200B4F9B0933200E6
:102AC800B091490100903200E894B0FF689402F890
:102AD80000923200B0913200B860B09332000E9488
:102AE800A705B0913200B77FB093320023FAB091B6
:102AF8003200B7F9B093320022FAB0913200B6F939
:102B0800B093320021FAB0913200B5F9B093320097
:102B180020FAB0913200B4F9B0933200B091490173
:102B280000903200E894B0FF689402F800923200F6
:102B3800B0913200B860B09332000E94A705B091FE
:102B48003200B77FB0933200B0914901B0FF03C0A3
:0C2B58000E94AC0502C00E94A105089577
:0C0B420006EA0A95F1F700000000089593
:1029A4002F920FC0B0E82B2E19C0B0EC2B2E16C0FE
:1029B400B4E92B2E13C0B4ED2B2E10C0B0E82B2E8F
:1029C4000DC0B1E02B1671F3B2E02B1671F3B3E036
:1029D4002B1671F3B4E02B1671F3F0CF032D0150D5
:1029E400020D202E202E56D0B0914901BE7FB09307
:1029F400490110E0E12FF0E0E40DF51D0081002312
:102A040081F0E12FF0E0E40DF51D00811F932F927A
:102A1400202E0E94B3052F901F91012F0F5F102FBE
:102A2400E9CFB0914901B160B09349012F90089565
:002A3400A2
:100B6600B0914901BE7FB09349010E944C15B091E6
:0A0B76004901B160B09349010895F0
:102A3400CF93DF93CDB7DEB72297CDBFDEBF21960C
:102A44002F92B0E02B1619F400E010E01CC0B1E0A6
:102A54002B1619F401E010E016C0B2E02B1619F49D
:102A640001E010E010C0022D01502F92202EE0DF73
:102A74002F9008831983022D0250202ED9DF28813C
:102A84003981020F131F2F902196CDBFDEBFDF9136
:042A9400CF91089541
:10293800CF93DF93CDB7DEB72297CDBFDEBF219609
:102948002F923F924F925F926F927F922E813F819A
:10295800FE018E01085F1F4F0E5F1F4F01931193F9
:102968008E013F932F9338014884598419010E949E
:10297800C0052F913F91A801F801E20FF31FB0E0C5
:10298800B0838A017F906F905F904F903F902F9017
:0C2998002196CDBFDEBFDF91CF910895E6
:100B8000CF93DF93CDB7DEB7A397CDBFDEBF21965E
:100B9000B0E0B98FBA8FF20182010F5F1F4F2801B9
:100BA00004910A87002311F40C9461130A8505321D
:100BB00071F00A85F101008381010F5F1F4F180159
:100BC000098D1A8D0F5F1F4F098F1A8FE4CFB0E088
:100BD000BB87BC87B0E0BD87BE8732C00D851E8550
:100BE00008600D871E8782010F5F1F4F28013DC0DF
:100BF0000D851E8501600D871E8782010F5F1F4FC7
:100C0000280133C00D851E8502600D871E87820175
:100C10000F5F1F4F280129C00D851E8518600D87A5
:100C20001E8782010F5F1F4F28011FC00D851E8583
:100C300004600D871E8782010F5F1F4F280115C0BA
:100C4000F20104910D3251F2F2010491003281F26D
:100C5000F20104910B32B1F2F20104910332E1F29C
:100C6000F2010491003311F301C0B7CF0D851E8549
:100C700001FF05C00D851E850E7F0D871E870D8522
:100C80001E8503FF05C00D851E850B7F0D871E8702
:100C9000F201049110E03F922F92202E73DE2F90EC
:100CA0003F90002309F1B0E0BB87BC870B851C8512
:100CB0004AE050E033DFF2012491020FB0E01B1F45
:100CC000005310400B871C8782010F5F1F4F2801C4
:100CD000F801049110E03F922F92202E53DE2F90C6
:100CE0003F90002319F716C0F20104910A3291F4E3
:100CF000F30121913191F901019111910B871C8729
:100D000089010E5F1F4FF3010193119382010F5F61
:100D10001F4F2801F20104910E3209F03DC08201FB
:100D20000F5F1F4F2801F80104910A3299F4F30173
:100D300021913191F9010191119108871987890158
:100D40000E5F1F4FF3010193119382010F5F1F4F3D
:100D5000280121C0B0E0B887B987F201049110E002
:100D60003F922F92202E0EDE2F903F90002399F07D
:100D7000088519854AE050E0D1DEF2012491020F86
:100D8000B0E01B1F005310400887198782010F5FD6
:100D90001F4F2801E2CF08C0B0E0B887B9870D85A2
:100DA0001E8510610D871E87F20182010F5F1F4FA4
:100DB000280104910A87FEC0098D1A8D0C946313D3
:100DC0000D851E8500610D871E87EECF0D851E8562
:100DD00014600D871E872FC10D851E8500620D874B
:100DE0001E870D851E8511600D871E8724C10D8508
:100DF0001E8512600D871E871EC10D851E8500642D
:100E00000D871E8718C117C10D851E8500620D87CD
:100E10001E870D851E8500680D871E870CC1F30196
:100E200001911191F801019111910D8B1E8BF3012C
:100E3000019111910E5F1F4FF301019311930D89E1
:100E40001E89103009F4003021F4B6E3BD8BB1E007
:100E5000BE8BB0E0BF8BB88F2D893E890F89188D6E
:100E6000F801E20FF31F0081002339F00F89188D7C
:100E70000F5F1F4F0F8B188FEFCF08851985B02F8D
:100E8000B12B59F0288539850F89188D2017310726
:100E900020F4088519850F8B188F2B853C850F89C9
:100EA000188D0217130748F40F88188C0B851C85C2
:100EB000001911090B871C8703C0B0E0BB87BC87F2
:100EC0000D851E8503FD19C02B853C850B851C8572
:100ED000015010400B871C87B22FB32B71F0F1012A
:100EE000B0E2B08381010F5F1F4F1801098D1A8D89
:100EF0000F5F1F4F098F1A8FE7CF2F89388D0F890A
:100F0000188D015010400F8B188FB22FB32BB1F0FA
:100F1000ED89FE890081F101008381010F5F1F4F80
:100F200018010D891E890F5F1F4F0D8B1E8B098DB8
:100F30001A8D0F5F1F4F098F1A8FDFCF0D851E850A
:100F400003FF19C02B853C850B851C850150104083
:100F50000B871C87B22FB32B71F0F101B0E2B08385
:100F600081010F5F1F4F1801098D1A8D0F5F1F4FF1
:100F7000098F1A8FE7CF0FCEF30101911191F8017C
:100F800000810A87F301019111910E5F1F4FF30158
:100F9000019311938E01065F1F4F0D8B1E8BB1E0E5
:100FA000BF8BB0E0B88F69CF0D851E85006C0D87B3
:100FB0001E8741C00A85003009F4FECE0A850C3632
:100FC00009F4FECE0A850C3409F4FACE0A850636F9
:100FD00009F4FCCE0A85053409F4FECE0A850536EF
:100FE00009F4FFCE0A85073609F401CF0A850F36CA
:100FF00009F403CF0A85043609F405CF0A850936BA
:1010000009F401CF0A85003709F4FECE0A850835B8
:1010100009F4FACE0A85083709F4FBCE0A850337AE
:1010200009F4FDCE0A85033609F4A6CF0A850537F3
:1010300009F4BACFAFCF0D851E8500701770B02FA1
:10104000B12B09F4C8C70D851E8514FF04C0B6E096
:10105000B887B0E0B987F30101911191F8010191CE
:101060001191219131910F87188B298B3A8BF301C4
:10107000019111910C5F1F4FF301019311933F9266
:101080002F9240E050E060E070E00F8518892989D8
:101090003A893DDD002800E009F001E02F903F9003
:1010A0000023A9F00F85188929893A89B0E00B2718
:1010B000B0E01B27B0E02B27B0E83B270F87188B49
:1010C000298B3A8B0D851E8503600D871E87B0E046
:1010D000BB8BBC8B3F922F920F85188929893A8947
:1010E00040E050E060E070E077DA002800E009F0CE
:1010F00001E02F903F90002309F48BC0AE014D5EBC
:101100005F4FFE013F960191119121913191B7E11D
:101110003695279517950795BA95D1F710700E5704
:101120001040FA01019311930B891C890150104062
:101130000B8B1C8B43E050E0F1DC0B8B1C8B7F9204
:101140006F925F924F923F922F924AE050E071D996
:101150008B012F903F904F905F906F907F900B8B03
:101160001C8B20E030E00217130734F40B891C8934
:10117000015010400B8B1C8B0B8800E000197F92F4
:101180006F925F924F923F922F92202E5ADA2F90B9
:101190003F904F905F906F907F903F922F924F853E
:1011A000588969897A8928D90D8B1E8B2F8B388FA6
:1011B00040E050E060E87FE30D891E892F89388D7B
:1011C000A6DC002800E009F001E02F903F9000230A
:1011D00039F00B891C89015010400B8B1C8B19C0F6
:1011E0003F922F9240E050E060E271E40D891E8949
:1011F0002F89388DEAD9002800E009F001E02F900E
:101200003F90002331F00B891C890F5F1F4F0B8B20
:101210001C8B2B893C8900E010E0021713071CF09F
:10122000B1E0BA8702C00B890A870D851E8510FDC3
:1012300015C00D851E8511FF10C02B893C890CEF50
:101240001FEF2017310744F02B893C890885198549
:10125000201731070CF401C001C057C30885198558
:10126000B02FB12B51F00D851E8511FF06C00885EA
:10127000198501501040088719872885398508E0AD
:1012800010E00217130718F4B8E0BA8702C0088507
:101290000A873F922F920F85188929893A8940E061
:1012A00050E060E070E098D9002800E009F001E02B
:1012B0002F903F90002309F4B9C07F926F925F9204
:1012C0004F923F922F922B88BCD9A801B9010F856C
:1012D000188929893A89ABD90F87188B298B3A8BC2
:1012E0000A8400E00019202EACD9A801B9010F85AD
:1012F000188929893A899BD92F903F904F905F9008
:101300006F907F900F87188B298B3A8B6CD924D9DB
:101310003F922F92A801B9010F85188929893A892E
:101320004AD940E050E060E07FE34FD90028B0E0C8
:1013300009F0B1E00B2F2F903F90002389F03F92EE
:101340002F920F85188929893A8940E050E060E0A2
:101350007FE327D92F903F900F87188B298B3A8BEB
:101360000F85188929893A893ED94A8550E04F5F0F
:101370005F4FBA01660F771F660F771F4CE651E08B
:10138000FB01E40FF51F4591559165917591041787
:10139000150726073707C0F03F922F920F8518894F
:1013A00029893A894DEC5CEC6CEC7DE325D82F90D3
:1013B0003F900F87188B298B3A8B0B891C890F5F05
:1013C0001F4F0B8B1C8B32C00F85188929893A89D6
:1013D0000AD94A85642F70E0660F771F660F771F62
:1013E0004CE651E0FB01E40FF51F459155916591E5
:1013F00075910417150726073707C0F43F922F92FF
:101400000F85188929893A8940E050E060E271E44B
:101410000E94FC012F903F900F87188B298B3A8BED
:101420000B891C89015010400B8B1C8B0D851E8570
:1014300011FF6FC00D851E8513FD6BC02885398592
:101440000AE010E00217130724F4BAE0B887B0E00E
:10145000B9870F85188929893A89C5D80D8B1E8BC4
:101460002F8B388F0D891E892F89388DB02FB12B86
:10147000B22BB32B49F14AE050E060E070E00D89F7
:101480001E892F89388D6BD88D019F01303029F44A
:10149000203019F4103009F40030B1F408851985B2
:1014A00001501040088719874AE050E060E070E082
:1014B0000D891E892F89388D52D88B019C010D8B87
:1014C0001E8B2F8B388FCECF188529850A85101754
:1014D000B0E02B07F4F408840A8500197F926F921C
:1014E0005F924F923F922F92202EABD8A801B90164
:1014F0000F85188929893A899AD82F903F904F9063
:101500005F906F907F900F87188B298B3A8B08859F
:101510000A872885398589010B5F1F4F08010B85D4
:101520001C85001911090B871C87B22FB32B29F4D6
:101530000D851E8513FD01C006C00B851C8501505D
:1015400010400B871C870D851E8503701070B02F0F
:10155000B12B31F00B851C85015010400B871C8787
:101560000D851E8502FF48C00D851E8501FF17C031
:101570000D851E8500FF03C0BDE2B88302C0BBE23B
:10158000B8830881F101008381010F5F1F4F1801AB
:10159000098D1A8D0F5F1F4F098F1A8F11C00D858E
:1015A0001E8500FF0DC0F101B0E2B08381010F5F25
:1015B0001F4F1801098D1A8D0F5F1F4F098F1A8F4A
:1015C0002B853C8500E010E002171307A4F4F1011D
:1015D000B0E3B08381010F5F1F4F1801098D1A8D91
:1015E0000F5F1F4F098F1A8F0B851C85015010400C
:1015F0000B871C87E5CF4BC00D851E8503FD1BC0E7
:101600002B853C8500E010E002171307A4F4F101DC
:10161000B0E2B08381010F5F1F4F1801098D1A8D51
:101620000F5F1F4F098F1A8F0B851C8501501040CB
:101630000B871C87E5CF0D851E8501FF17C00D8523
:101640001E8500FF03C0BDE2B98302C0BBE2B983BF
:101650000981F101008381010F5F1F4F1801098D7E
:101660001A8D0F5F1F4F098F1A8F11C00D851E85B0
:1016700000FF0DC0F101B0E2B08381010F5F1F4F89
:101680001801098D1A8D0F5F1F4F098F1A8F0F8553
:10169000188929893A890E94F3020D8B1E8B2F8BA2
:1016A000388F0A85202F30E0220F331F220F331F7F
:1016B0000CE611E0F901E00FF11F4591559165919C
:1016C00075910D891E892F89388D0E94AF028B017B
:1016D0009C01005DF101008381010F5F1F4F180124
:1016E000098D1A8D0F5F1F4F098F1A8F0885198575
:1016F000B02FB12B29F40D851E8513FD01C062C0EA
:10170000F101BEE2B08381010F5F1F4F1801098D07
:101710001A8D0F5F1F4F098F1A8F0A84B0E01B2E9E
:101720000885198500191109088719870A8500237A
:1017300081F10A8501500A87202F30E0220F331FE4
:10174000220F331F0CE611E0F901E00FF11F459164
:101750005591659175910D891E892F89388D0E944B
:10176000AF028B019C014AE050E060E070E00E9413
:10177000AF028D019F01005DF101008381010F5FC8
:101780001F4F1801098D1A8D0F5F1F4F098F1A8F78
:10179000CDCF08851985B02FB12BA1F0F101B0E3B1
:1017A000B08381010F5F1F4F1801098D1A8D0F5FE4
:1017B0001F4F098F1A8F088519850150104008871F
:1017C0001987E7CF0D851E8505FF0EC0F101B5E431
:1017D000B08381010F5F1F4F1801098D1A8D0F5FB4
:1017E0001F4F098F1A8F0DC0F101B5E6B08381013B
:1017F0000F5F1F4F1801098D1A8D0F5F1F4F098F43
:101800001A8F2B893C8900E010E020173107B4F4CF
:101810000B881C8800E010E0001911090B8B1C8B51
:10182000F101BDE2B08381010F5F1F4F1801098DE7
:101830001A8D0F5F1F4F098F1A8F0DC0F101BBE288
:10184000B08381010F5F1F4F1801098D1A8D0F5F43
:101850001F4F098F1A8F7F926F925F924F923F9224
:101860002F924AE050E00B891C890E9419028B01DB
:101870002F903F90005DF101008381010F5F1F4FAA
:101880001801098D1A8D0F5F1F4F098F1A8F3F9214
:101890002F924AE050E00B891C890E9419028C01AA
:1018A0002F903F904F905F906F907F90005DF1017F
:1018B000008381010F5F1F4F1801098D1A8D0F5F83
:1018C0001F4F098F1A8F0D851E8503FF1DC02B85A5
:1018D0003C8500E010E002171307B4F4F101B0E218
:1018E000B08381010F5F1F4F1801098D1A8D0F5FA3
:1018F0001F4F098F1A8F0B851C85015010400B87D5
:101900001C87B02FB12B51F746C90D851E8511FFDD
:10191000B3C02B893C8900E010E0201731075CF44C
:101920000B891C8901501040080108851985001990
:101930001109088719870F85188929893A890E9412
:10194000F3020D8B1E8B2F8B388FB1E0BA870A857F
:101950000A30F1F00A85202F30E0220F331F220FCA
:10196000331F0CE611E0F901E00FF11F459155918D
:10197000659175910D891E892F89388D041715077A
:101980002607370708F404C00A850F5F0A87DFCFF0
:101990000A84B0E01B2E08851985001911090887F3
:1019A00019870D891E892F89388D0E94AC023F92BC
:1019B0002F92A801B9010F85188929893A890E94B7
:1019C000DB022F903F900F8F18A329A33AA37F9299
:1019D0006F925F924F923F922F9228840E94210330
:1019E0002F903F904F905F906F907F904F8D58A1B8
:1019F00069A17AA13F922F920E94FC0140E050E041
:101A000060E07FE30E94D1022F903F900E94F3029A
:101A10000D8B1E8B2F8B388F08851985B02FB12B1E
:101A200059F14AE050E060E070E00D891E892F898D
:101A3000388D0E94AF028D019F01303029F4203093
:101A400019F4103009F40030B9F44AE050E060E0D5
:101A500070E00D891E892F89388D0E94AF028B019D
:101A60009C010D8B1E8B2F8B388F0885198501509B
:101A7000104008871987D0CF288539850CE010E001
:101A8000021713078CF03F922F9228840E94CC04F7
:101A90004F85588969897A890E94D1022F903F9099
:101AA0000F87188B298B3A8B3F922F920F851889BD
:101AB00029893A8940E050E060E070E00E94EC0241
:101AC000002800E009F001E02F903F90002309F486
:101AD0006FC00F85188929893A890E94F302303036
:101AE00029F4203019F4103009F4003009F060C0F6
:101AF0002B893C8901E010E0021713070CF058C055
:101B00007F926F925F924F923F922F922B880E940A
:101B10002103A801B9010F85188929893A890E94F2
:101B200017032F903F904F905F906F907F903F9260
:101B30002F924FE550E769E870E40E94870500287E
:101B4000B0E009F0B1E00B2F2F903F90002339F067
:101B50000B891C89095010400B8B1C8B06C00B890C
:101B60001C89085010400B8B1C8B7F926F925F92E8
:101B70004F923F922F922B880E942103A801B90116
:101B80000F85188929893A890E9417032F903F9061
:101B90004F905F906F907F900E94F3020D8B1E8B91
:101BA0002F8B388FB0E0BF87B88BB98BBA8B23C02F
:101BB0000F85188929893A890E94F3020D8B1E8BA3
:101BC0002F8B388F0D891E892F89388D0E94AC028A
:101BD0003F922F92A801B9010F85188929893A8966
:101BE0000E94DB022F903F900F87188B298B3A8B36
:101BF000B0E0BB8BBC8BB1E0BA870A850A30F1F04C
:101C00000A85202F30E0220F331F220F331F0CE6EE
:101C100011E0F901E00FF11F459155916591759122
:101C20000D891E892F89388D041715072607370758
:101C300008F404C00A850F5F0A87DFCF48855985FD
:101C40000A85202F30E0240F351F0B891C89020FD5
:101C5000131F08010B851C85001911090B871C87B0
:101C60000D851E8513FD06C008851985B02FB12B83
:101C700009F406C00B851C85015010400B871C879A
:101C80000D851E8503701070B02FB12B31F00B85C0
:101C90001C85015010400B871C870D851E8502FF97
:101CA00048C00D851E8501FF17C00D851E8500FFEC
:101CB00003C0BDE2BA8302C0BBE2BA830A81F1016C
:101CC000008381010F5F1F4F1801098D1A8D0F5F6F
:101CD0001F4F098F1A8F11C00D851E8500FF0DC083
:101CE000F101B0E2B08381010F5F1F4F1801098D30
:101CF0001A8D0F5F1F4F098F1A8F2B853C8500E0CF
:101D000010E002171307A4F4F101B0E3B0838101DE
:101D10000F5F1F4F1801098D1A8D0F5F1F4F098F1D
:101D20001A8F0B851C85015010400B871C87E5CF4F
:101D30004BC00D851E8503FD1BC02B853C8500E037
:101D400010E002171307A4F4F101B0E2B08381019F
:101D50000F5F1F4F1801098D1A8D0F5F1F4F098FDD
:101D60001A8F0B851C85015010400B871C87E5CF0F
:101D70000D851E8501FF17C00D851E8500FF03C060
:101D8000BDE2BB8302C0BBE2BB830B81F1010083D8
:101D900081010F5F1F4F1801098D1A8D0F5F1F4FB3
:101DA000098F1A8F11C00D851E8500FF0DC0F1012E
:101DB000B0E2B08381010F5F1F4F1801098D1A8DAA
:101DC0000F5F1F4F098F1A8F1A850A8501500A87E6
:101DD000112371F10A85202F30E0220F331F220FCB
:101DE000331F0CE611E0F901E00FF11F4591559109
:101DF000659175910D891E892F89388D0E94AF02DA
:101E00008B019C014AE050E060E070E00E94AF026C
:101E10008D019F01005DF101008381010F5F1F4F64
:101E20001801098D1A8D0F5F1F4F098F1A8FCCCFA4
:101E30002B893C8900E010E002171307A4F4F1019C
:101E4000B0E3B08381010F5F1F4F1801098D1A8D18
:101E50000F5F1F4F098F1A8F0B891C89015010408B
:101E60000B8B1C8BE5CF2885398508E010E0021725
:101E700013071CF4B8E0BA8702C008850A870A84F1
:101E8000B0E01B2E088519850019110908871987EC
:101E90000A85002329F40D851E8513FD01C00DC0A0
:101EA000F101BEE2B08381010F5F1F4F1801098D60
:101EB0001A8D0F5F1F4F098F1A8F7F926F925F925B
:101EC0004F923F922F922A840E9421032F903F909D
:101ED0004F905F906F907F903F922F924F855889DF
:101EE00069897A890E94FC012F903F900E94F30239
:101EF0000D8B1E8B2F8B388F0A85002381F10A856D
:101F000001500A87202F30E0220F331F220F331F8A
:101F10000CE611E0F901E00FF11F45915591659133
:101F200075910D891E892F89388D0E94AF028B0112
:101F30009C014AE050E060E070E00E94AF028D0139
:101F40009F01005DF101008381010F5F1F4F1801A8
:101F5000098D1A8D0F5F1F4F098F1A8FCDCF0885FE
:101F60001985B02FB12BA1F0F101B0E3B08381014D
:101F70000F5F1F4F1801098D1A8D0F5F1F4F098FBB
:101F80001A8F088519850150104008871987E7CFF7
:101F90000D851E8503FF1DC02B853C8500E010E0EC
:101FA00002171307B4F4F101B0E2B08381010F5FAF
:101FB0001F4F1801098D1A8D0F5F1F4F098F1A8F40
:101FC0000B851C85015010400B871C87B02FB12B4F
:101FD00051F70C94CB050D851E85007C10701030D8
:101FE00009F4003009F052C00D851E8504FF15C0AC
:101FF000F30101911191F801019111912191319118
:102000000D8B1E8B2F8B388FF301019111910C5F7B
:102010001F4FF3010193119316C0F3010191119128
:10202000F8010191119120E017FD2FEF322F0D8B58
:102030001E8B2F8B388FF301019111910E5F1F4F73
:10204000F301019311934D895E896F89788D00E0CA
:1020500010E020E030E04017510762077307ACF44E
:102060000D851E8503600D871E870D881E8800E084
:1020700010E0001911090F88188C20E030E02009C9
:1020800031090D8B1E8B2F8B388F2CC00D851E8533
:1020900004FF15C0F30101911191F8010191119113
:1020A000219131910D8B1E8B2F8B388FF301019174
:1020B00011910C5F1F4FF3010193119313C0F301B2
:1020C00001911191F801019111910D8B1E8BB0E0DE
:1020D000BF8BB88FF301019111910E5F1F4FF30178
:1020E0000193119308851985103009F4003091F49B
:1020F0000D891E892F89388D303029F4203019F44C
:10210000103009F4003031F4088519850F5F1F4F36
:10211000088719870D85007C802F6CC0B1E0BA87D5
:102120000A850A30F1F00A85202F30E0220F331F94
:10213000220F331F0CE611E0F901E00FF11F45916A
:102140005591659175910D891E892F89388D0417D8
:1021500015072607370708F404C00A850F5F0A87AA
:10216000DFCF53C0B1E0BA870A850830F1F00A85A5
:10217000202F30E0220F331F220F331F04E911E01C
:10218000F901E00FF11F45915591659175910D8908
:102190001E892F89388D041715072607370708F47D
:1021A00004C00A850F5F0A87DFCF2FC0B1E0BA876E
:1021B0000A850C30F1F00A85202F30E0220F331F02
:1021C000220F331F0CE311E0F901E00FF11F4591DD
:1021D0005591659175910D891E892F89388D041748
:1021E00015072607370708F404C00A850F5F0A871A
:1021F000DFCF0BC0803009F491CF803C09F48ECF43
:10220000803809F4AFCF803489F20A852885398572
:1022100010E0021713071CF408850A870BC0188505
:1022200029850A851017B0E02B0724F40A85088752
:10223000B0E0B9870B851C85B02FB12B69F00D85F7
:102240001E8503701070B02FB12B31F00B851C85EB
:10225000015010400B871C872B853C85088519850C
:10226000021713074CF4088419840B851C85001988
:1022700011090B871C8703C0B0E0BB87BC870D85A5
:102280001E85047C1870183009F4003461F40B8545
:102290001C85B02FB12B31F00B851C8501501040EF
:1022A0000B871C8719C00D851E85007C187018309F
:1022B00009F4003889F42B853C8502E010E0021710
:1022C00013073CF40B851C85025010400B871C87BC
:1022D00003C0B0E0BB87BC870D851E8502FF74C0BC
:1022E0000D851E8501FF17C00D851E8500FF03C0EB
:1022F000BDE2BC8302C0BBE2BC830C81F101008360
:1023000081010F5F1F4F1801098D1A8D0F5F1F4F3D
:10231000098F1A8F3DC00D851E8500FF0EC0F1018B
:10232000B0E2B08381010F5F1F4F1801098D1A8D34
:102330000F5F1F4F098F1A8F2BC00D851E85007CE4
:102340001870183009F4003819F5F101B0E3B083C2
:1023500081010F5F1F4F1801098D1A8D0F5F1F4FED
:10236000098F1A8F0D851E8505FF03C0B8E5BD8353
:1023700002C0B8E7BD830D81F101008381010F5FC9
:102380001F4F1801098D1A8D0F5F1F4F098F1A8F6C
:102390000B851C85B02FB12BB1F0F101B0E3B083F8
:1023A00081010F5F1F4F1801098D1A8D0F5F1F4F9D
:1023B000098F1A8F0B851C85015010400B871C87D5
:1023C000B02FB12B51F78CC00B851C85B02FB12BD2
:1023D000D1F00D851E8503FD16C0F101B0E2B0837A
:1023E00081010F5F1F4F1801098D1A8D0F5F1F4F5D
:1023F000098F1A8F0B851C85015010400B871C8795
:10240000B02FB12B51F70D851E8501FF17C00D852B
:102410001E8500FF03C0BDE2BE8302C0BBE2BE83D7
:102420000E81F101008381010F5F1F4F1801098D9B
:102430001A8D0F5F1F4F098F1A8F11C00D851E85D2
:1024400000FF0DC0F101B0E2B08381010F5F1F4FAB
:102450001801098D1A8D0F5F1F4F098F1A8F0D8577
:102460001E85007C1870183009F4003471F4F101F5
:10247000B0E3B08381010F5F1F4F1801098D1A8DE2
:102480000F5F1F4F098F1A8F2BC00D851E85007C93
:102490001870183009F4003819F5F101B0E3B08371
:1024A00081010F5F1F4F1801098D1A8D0F5F1F4F9C
:1024B000098F1A8F0D851E8505FF03C0B8E5BF8300
:1024C00002C0B8E7BF830F81F101008381010F5F74
:1024D0001F4F1801098D1A8D0F5F1F4F098F1A8F1B
:1024E000288539850A8510E00217130774F4F10175
:1024F000B0E3B08381010F5F1F4F1801098D1A8D62
:102500000F5F1F4F098F1A8FEBCF288539850885FC
:1025100019850150104008871987B22FB32B09F491
:10252000ADC00D85007C0F8F8FC00885198598017F
:10253000220F331F220F331F0CE611E0F901E00FC9
:10254000F11F45915591659175910D891E892F89CE
:10255000388D0E94AF028B019C014AE050E060E0A0
:1025600070E00E94AF028D019F01005D0A8778C074
:102570000D851E8505FF26C0088519859801220F47
:10258000331F220F331F04E911E0F901E00FF11F9F
:1025900045915591659175910D891E892F89388DC9
:1025A0000E94AF028B019C01A801B9014F705070CD
:1025B0006070707004EB11E0F801E40FF51F0491F6
:1025C0000A8725C0088519859801220F331F220F1D
:1025D000331F04E911E0F901E00FF11F4591559116
:1025E000659175910D891E892F89388D0E94AF02E2
:1025F0008B019C01A801B9014F7050706070707020
:1026000005EC11E0F801E40FF51F04910A8728C0DA
:10261000088519859801220F331F220F331F0CE301
:1026200011E0F901E00FF11F459155916591759108
:102630000D891E892F89388D0E94AF028B019C0164
:102640000770005D0A870CC00F8D003009F46DCF54
:10265000003C09F46ACF003809F48ACF0034C1F293
:102660000A85F101008381010F5F1F4F1801098D59
:102670001A8D0F5F1F4F098F1A8F47CF0D851E854B
:1026800003FF1DC02B853C8500E010E002171307F7
:10269000B4F4F101B0E2B08381010F5F1F4F180164
:1026A000098D1A8D0F5F1F4F098F1A8F0B851C859F
:1026B000015010400B871C87B02FB12B51F70C94A1
:1026C000CB05098D1A8DA296CDBFDEBFDF91CF91CC
:0226D00008956B
:1009840009E3021528F0B0E32B1610F001E001C0D2
:0409940000E00895E2
:10064200CF93DF93CDB7DEB72497CDBFDEBF219620
:10065200B0E02B160CF0C9C000E00219202E0E36B5
:100662000CF46DC02F9244E650E0022D10E027FCFE
:100672001FEFDEDE062F2F9010E007FD1FEF0E5E4C
:100682001F4F9801220F331F220F331F08E011E082
:10069200F901E00FF11F059115912591359108831C
:1006A20019832A833B832F9244E650E0022D10E007
:1006B20027FC1FEFBDDE082F10E007FD1FEF4AE009
:1006C20050E0B6DE062F10E007FD1FEF075F1F4F59
:1006D2009801220F331F220F331F08E011E0F901A6
:1006E200E00FF11F4591559165917591088119812E
:1006F2002A813B8180DE2F90088319832A833B83E2
:100702004AE050E0022D10E027FC1FEF91DE082F97
:10071200202F30E007FD3FEF220F331F220F331F40
:1007220008E011E0F901E00FF11F45915591659143
:100732007591088119812A813B815DDE1CC10AE025
:1007420002150CF040C02F924AE050E0022D10E05A
:1007520027FC1FEF6DDE062F2F9010E007FD1FEF25
:10076200075F1F4F9801220F331F220F331F08E02C
:1007720011E0F901E00FF11F0591159125913591D5
:10078200088319832A833B834AE050E0022D10E05C
:1007920027FC1FEF4DDE082F202F30E007FD3FEF33
:1007A200220F331F220F331F08E011E0F901E00F7F
:1007B200F11F4591559165917591088119812A81A1
:1007C2003B8119DED8C0222D30E027FC3FEF220FFB
:1007D200331F220F331F08E011E0F901E00FF11F70
:1007E2000591159125913591C6C0BEE62B160CF4E4
:1007F2006DC02F9244E650E0022D10E027FC1FEF5F
:1008020017DE062F2F9010E007FD1FEF0E5E1F4F21
:100812009801220F331F220F331F04ED10E0F9015C
:10082200E00FF11F059115912591359108831983E8
:100832002A833B832F9244E650E0022D10E027FCEE
:100842001FEFF6DD082F10E007FD1FEF4AE050E032
:10085200EFDD062F10E007FD1FEF075F1F4F980126
:10086200220F331F220F331F04ED10E0F901E00FB6
:10087200F11F4591559165917591088119812A81E0
:100882003B81B9DD2F90088319832A833B834AE099
:1008920050E0022D10E027FC1FEFCADD082F202FA9
:1008A20030E007FD3FEF220F331F220F331F04ED0D
:1008B20010E0F901E00FF11F459155916591759195
:1008C200088119812A813B8196DD55C00AE0021513
:1008D2000CF040C02F924AE050E0022D10E027FCBD
:1008E2001FEFA6DD062F2F9010E007FD1FEF075F19
:1008F2001F4F9801220F331F220F331F04ED10E008
:10090200F901E00FF11F05911591259135910883A9
:1009120019832A833B834AE050E0022D10E027FC32
:100922001FEF86DD082F202F30E007FD3FEF220F5B
:10093200331F220F331F04ED10E0F901E00FF11F06
:100942004591559165917591088119812A813B8163
:1009520052DD11C0222D30E027FC3FEF220F331F62
:10096200220F331F04ED10E0F901E00FF11F059192
:100972001591259135912396CDBFDEBFDF91CF91A1
:020982000895D6
:10043200C801BA0197FB092E07260AD077FD04D01E
:100442000CD006D000201AF4709561957F4F089564
:10045200F6F7909581959F4F0895AA1BBB1B51E11A
:1004620007C0AA1FBB1FA617B70710F0A61BB70B22
:10047200881F991F5A95A9F780959095BC01CD01C7
:04048200089508953C
:1003F800042E152E262E372EB2DF002E112E222E79
:04040800332E0895F2
:10036600E7DF81F1E62ED52EC42EB32EA22E912ED6
:10037600802E002D112D222D332DDADF19F16E2559
:100386004C0D5D1D40385307F4F441387FEF570795
:10039600FCF088279927AA27BB2770E2B695A79570
:1003A60097958795379527951795079520F4880D86
:1003B600991DAA1DBB1D7A9589F7032F3A2F292F60
:1003C600182F88DF0AC00FEF102F2FE73FE7FACF6D
:0C03D6000027102F202F302FF5CF0895A6
:10033600C9DF79F0632F6078220F331F432F5FE701
:10034600451B55275040269530E8232B3327989494
:0A03560003C04427552766270895C9
:1002CA00002329F4112319F4222309F4332308956E
:0002DA0024
:1002DA00F7DF11F19F938F938EE790E0332351F06C
:1002EA00369527951795079548175907B4F44F5F20
:1002FA005F4FF4CF80959095019622239AF0000FD4
:10030A00111F221F481759071CF041505040F5CFC2
:10031A00002711272227332708C033270FEF102F72
:0C032A002FE7322F8F919F91C1DF0895C3
:1002B60009D039F041585F4F342F220F36952795D4
:0402C600362B089536
:10099800CF93DF93CDB7DEB72497CDBFDEBF2196C7
:1009A800BEE62B1608F45AC044E6022D32DD10E0EC
:1009B8000E5E1F4F9801220F331F220F331F08E0CE
:1009C80011E0F901E00FF11F05911591259135917D
:1009D8002F9240E050E060E07FE30ADD2F9008832B
:1009E80019832A833B8344E6022D13DD092F4AE04D
:1009F80010DD10E0075F1F4F9801220F331F220FF1
:100A0800331F08E011E0F901E00FF11F45915591FE
:100A180065917591088119812A813B812F92E8DCC3
:100A28002F90088319832A833B834AE0022DF1DC47
:100A3800092F202F30E0220F331F220F331F08E029
:100A480011E0F901E00FF11F4591559165917591FC
:100A5800088119812A813B81CBDC4FC00AE002154D
:100A6800C0F54AE0022DD5DC10E0075F1F4F980162
:100A7800220F331F220F331F08E011E0F901E00FA6
:100A8800F11F05911591259135912F9240E050E085
:100A980060E07FE3ADDC2F90088319832A833B83D2
:100AA8004AE0022DB6DC092F202F30E0220F331F39
:100AB800220F331F08E011E0F901E00FF11F459103
:100AC800559165917591088119812A813B8190DC46
:100AD80014C0222D30E0220F331F220F331F08E0ED
:100AE80011E0F901E00FF11F05911591259135915C
:100AF80040E050E060E07FE37BDC2396CDBFDEBFC3
:060B0800DF91CF9108957A
:10041A00992779E004C0991F941708F0941B001FCC
:08042A007A95C9F700950895C9
:100B1C002227002400FF02C0040E251F440F551F7E
:100B2C004115510529F0169507951050004091F785
:060B3C00122F002D0895A8
:0E0B0E007EDC1CF40024039401C00024089532
:0E040C00042E152E262E372EE6DF002308952F
:1003E200BEDF332332F070DF11F001E003C00027DB
:0603F20001C00FEF0895A9
:0603600068944EDF0895D1
:10020000F8DF09F441C0E62ED52EC42EB32EA22E5F
:10021000912E802E002D112D222D332DEADF09F491
:100220003DC0842F952F8C199D09B9F072F49095DB
:10023000809501964C2D5D2D883180F5359527955B
:10024000179507950197D1F708C08831E8F4B59460
:10025000A794979487940197D1F766272EF0080DFD
:10026000191D2A1D3B1D09C0801A910AA20AB30A52
:10027000082D192D2A2D3B2D332312F4B1DF60E810
:100280002CD001C018D016C0002D112D222D332DD9
:10029000D6F71BD0C1F340E83427F5CF082D192D30
:1002A0002A2D3B2D4C2D5D2D6E2D33235AF798DFD3
:0602B00060E8E8CF0895AC
:0E01F200A1D021F0662309F0F2DF9894089561
:1001E00000951095209530950F5F1F4F2F4F3F4F73
:0201F000089570
:0E05D80019DF19F00024039401C000240895D7
:0E05CA0020DF1CF00024039401C000240895DB
:10062E00042E152E262E372E27DF002E112E222ECB
:04063E00332E0895BA
:100486003F932F931F930F93002D112D222D332D64
:100496004FDF09F44BC0E62ED52EC42EB32EA22E66
:1004A600912E802E0F911F912F913F9141DF61F187
:1004B6006E254C195D09403853073CF541387FEFEE
:1004C60057077CF180E27724632E522E412E302F7F
:1004D600222711270027000F111F221F331F441C3C
:1004E600551C661C771C28F0481859086A087B08B2
:1004F60004C0480C591C6A1C7B1C0AF001608A95D2
:1005060051F741505040E6DE16C00FEF102F2FE78F
:100516003FE76623C9F3D6DEB9F3342D30E8342538
:10052600F3CF0027102F202F302FEECF0F900F90F4
:080536000F900F90EACF089529
:1005E600A7DEF1F05523C2F04F31A8F44731C1F030
:1005F60050F44195495E05C03595279517950795A1
:100606004A95D1F70DC04751000F111F221F331F06
:100616004A95D1F705C03FE7232F132F032F03C0B9
:08062600662309F0DADD0895F6
:060558006894F1DF089534
:10053E0047E16627552726F0332312F44ADE60E89A
:04054E00C5DE089569
:1005B600042E152E262E372ED0DE002E112E222E9C
:0405C600332E089533
:1005A200042E152E262E372ED3DF002E112E222EAC
:0405B200332E089547
:06055200E89455DE089557
:10055E00C9019A01AB01B801A1E21A2EAA1BBB1B5D
:10056E00FD010DC0AA1FBB1FEE1FFF1FA217B30771
:10057E00E407F50720F0A20BB30BE40BF50B661F97
:10058E00771F881F991F1A9469F76095709580954B
:04059E009095089597
:0A292E0005900D920197E1F708955E
:102DE400A0E0B1E0ECE8F0E088E490E00E94971401
:022DF400089540
:0301D6002564009D
:0301DC0025640097
:0301D9002564009A
:100108000000803FCDCCCC3D0AD7233C6F12833A08
:1001180017B7D138ACC52737BD37863595BFD63325
:1001280077CC2B325F708930FFE6DB2E08E53C1E6A
:040138006042A20D72
:1000D4000000803F000020410000C84200007A4434
:1000E40000401C460050C347002474498096184BB6
:1000F40020BCBE4C286B6E4EF9021550EC78AD60F6
:04010400CAF2497181
:10016C00010000000A00000064000000E803000029
:10017C0010270000A086010040420F0080969800D6
:08018C0000E1F50500CA9A3BF1
:100194000100000010000000000100000010000039
:1001A4000000010000001000000000010000001029
:10013C000100000008000000400000000002000068
:10014C0000100000008000000000040000002000EF
:10015C00000000010000000800000040000000004A
:1001B4003031323334353637383941424344454699
:0101C400003A
:1001C50030313233343536373839616263646566C8
:0101D5000029
:0C008C0043616C63756C6174696E670001
:0A0098003020456E74657265640047
:0F00A2004D616B65206974204269676765720064
:1000B1005468652053657175656E6365202E2E2E1B
:0100C100003E
:0700C200286E756C6C29002B
:0200C9004C04E5
:0900CB004F766572666C6F7700D8
:00000001FF
